{
    "contractName": "MicrolendingSystem",
    "abi": [
        {
            "inputs": [
                {
                    "internalType": "uint256",
                    "name": "_interestRate",
                    "type": "uint256"
                }
            ],
            "stateMutability": "nonpayable",
            "type": "constructor"
        },
        {
            "anonymous": false,
            "inputs": [
                {
                    "indexed": true,
                    "internalType": "address",
                    "name": "borrower",
                    "type": "address"
                },
                {
                    "indexed": false,
                    "internalType": "uint256",
                    "name": "amount",
                    "type": "uint256"
                }
            ],
            "name": "LoanRepaid",
            "type": "event"
        },
        {
            "anonymous": false,
            "inputs": [
                {
                    "indexed": true,
                    "internalType": "address",
                    "name": "borrower",
                    "type": "address"
                },
                {
                    "indexed": false,
                    "internalType": "uint256",
                    "name": "amount",
                    "type": "uint256"
                },
                {
                    "indexed": false,
                    "internalType": "uint256",
                    "name": "interest",
                    "type": "uint256"
                },
                {
                    "indexed": false,
                    "internalType": "uint256",
                    "name": "dueDate",
                    "type": "uint256"
                }
            ],
            "name": "LoanRequested",
            "type": "event"
        },
        {
            "inputs": [
                {
                    "internalType": "address",
                    "name": "",
                    "type": "address"
                }
            ],
            "name": "balances",
            "outputs": [
                {
                    "internalType": "uint256",
                    "name": "",
                    "type": "uint256"
                }
            ],
            "stateMutability": "view",
            "type": "function"
        },
        {
            "inputs": [],
            "name": "getLoanCount",
            "outputs": [
                {
                    "internalType": "uint256",
                    "name": "",
                    "type": "uint256"
                }
            ],
            "stateMutability": "view",
            "type": "function"
        },
        {
            "inputs": [
                {
                    "internalType": "uint256",
                    "name": "_loanIndex",
                    "type": "uint256"
                }
            ],
            "name": "getLoanDetails",
            "outputs": [
                {
                    "internalType": "address",
                    "name": "",
                    "type": "address"
                },
                {
                    "internalType": "uint256",
                    "name": "",
                    "type": "uint256"
                },
                {
                    "internalType": "uint256",
                    "name": "",
                    "type": "uint256"
                },
                {
                    "internalType": "uint256",
                    "name": "",
                    "type": "uint256"
                },
                {
                    "internalType": "bool",
                    "name": "",
                    "type": "bool"
                }
            ],
            "stateMutability": "view",
            "type": "function"
        },
        {
            "inputs": [],
            "name": "interestRate",
            "outputs": [
                {
                    "internalType": "uint256",
                    "name": "",
                    "type": "uint256"
                }
            ],
            "stateMutability": "view",
            "type": "function"
        },
        {
            "inputs": [
                {
                    "internalType": "address",
                    "name": "_borrower",
                    "type": "address"
                },
                {
                    "internalType": "uint256",
                    "name": "_amount",
                    "type": "uint256"
                },
                {
                    "internalType": "uint256",
                    "name": "_durationInDays",
                    "type": "uint256"
                }
            ],
            "name": "lend",
            "outputs": [],
            "stateMutability": "payable",
            "type": "function"
        },
        {
            "inputs": [
                {
                    "internalType": "uint256",
                    "name": "",
                    "type": "uint256"
                }
            ],
            "name": "loans",
            "outputs": [
                {
                    "internalType": "address",
                    "name": "borrower",
                    "type": "address"
                },
                {
                    "internalType": "uint256",
                    "name": "amount",
                    "type": "uint256"
                },
                {
                    "internalType": "uint256",
                    "name": "interest",
                    "type": "uint256"
                },
                {
                    "internalType": "uint256",
                    "name": "dueDate",
                    "type": "uint256"
                },
                {
                    "internalType": "bool",
                    "name": "repaid",
                    "type": "bool"
                }
            ],
            "stateMutability": "view",
            "type": "function"
        },
        {
            "inputs": [],
            "name": "owner",
            "outputs": [
                {
                    "internalType": "address",
                    "name": "",
                    "type": "address"
                }
            ],
            "stateMutability": "view",
            "type": "function"
        },
        {
            "inputs": [
                {
                    "internalType": "uint256",
                    "name": "_loanIndex",
                    "type": "uint256"
                }
            ],
            "name": "repayLoan",
            "outputs": [],
            "stateMutability": "payable",
            "type": "function"
        },
        {
            "inputs": [],
            "name": "withdraw",
            "outputs": [],
            "stateMutability": "nonpayable",
            "type": "function"
        }
    ],
    "bytecode": "608060405234801561001057600080fd5b5060405161090a38038061090a83398101604081905261002f91610049565b600080546001600160a01b03191633179055600155610062565b60006020828403121561005b57600080fd5b5051919050565b610899806100716000396000f3fe6080604052600436106100865760003560e01c80637082d203116100595780637082d2031461014b5780637c3a00fd1461015e5780638da5cb5b14610174578063ab7b1c89146101ac578063e1ec3c68146101bf57600080fd5b806327e235e31461008b5780633ccfd60b146100cb57806352196812146100e257806366877b8d146100f7575b600080fd5b34801561009757600080fd5b506100b86100a6366004610764565b60026020526000908152604090205481565b6040519081526020015b60405180910390f35b3480156100d757600080fd5b506100e06101df565b005b3480156100ee57600080fd5b506003546100b8565b34801561010357600080fd5b50610117610112366004610786565b6102e6565b604080516001600160a01b03909616865260208601949094529284019190915260608301521515608082015260a0016100c2565b6100e061015936600461079f565b610348565b34801561016a57600080fd5b506100b860015481565b34801561018057600080fd5b50600054610194906001600160a01b031681565b6040516001600160a01b0390911681526020016100c2565b6100e06101ba366004610786565b61052d565b3480156101cb57600080fd5b506101176101da366004610786565b6106fa565b6000546001600160a01b0316331461024c5760405162461bcd60e51b815260206004820152602560248201527f4f6e6c7920746865206f776e65722063616e2063616c6c20746869732066756e60448201526431ba34b7b760d91b60648201526084015b60405180910390fd5b336000908152600260205260409020546102a15760405162461bcd60e51b81526020600482015260166024820152754e6f2062616c616e636520746f20776974686472617760501b6044820152606401610243565b33600081815260026020526040808220805490839055905190929183156108fc02918491818181858888f193505050501580156102e2573d6000803e3d6000fd5b5050565b60008060008060008060038781548110610302576103026107d2565b6000918252602090912060059091020180546001820154600283015460038401546004909401546001600160a01b039093169b919a50985091965060ff16945092505050565b8134146103ac5760405162461bcd60e51b815260206004820152602c60248201527f416d6f756e742073656e74206d75737420626520657175616c20746f2074686560448201526b081b1bd85b88185b5bdd5b9d60a21b6064820152608401610243565b60006301e1338082600154856103c291906107fe565b6103cc91906107fe565b6103d6919061081b565b905060006103e4828561083d565b905060036040518060a00160405280876001600160a01b03168152602001868152602001848152602001856201518061041d91906107fe565b610427904261083d565b815260006020918201819052835460018082018655948252828220845160059092020180546001600160a01b0319166001600160a01b039092169190911781558383015194810194909455604080840151600280870191909155606085015160038701556080909401516004909501805460ff19169515159590951790945533815291905290812080548392906104bf90849061083d565b90915550506001600160a01b0385167f470e775e4fa2bd975947314dc912d0dd85338d809a6b967e36382e32a3b6f2bb85846104fe87620151806107fe565b610508904261083d565b6040805193845260208401929092529082015260600160405180910390a25050505050565b600060038281548110610542576105426107d2565b6000918252602090912060059091020180549091506001600160a01b031633146105bc5760405162461bcd60e51b815260206004820152602560248201527f596f7520617265206e6f742074686520626f72726f776572206f662074686973604482015264103637b0b760d91b6064820152608401610243565b600481015460ff16156106115760405162461bcd60e51b815260206004820152601c60248201527f4c6f616e2068617320616c7265616479206265656e20726570616964000000006044820152606401610243565b80600201548160010154610625919061083d565b34146106735760405162461bcd60e51b815260206004820152601a60248201527f496e636f72726563742072657061796d656e7420616d6f756e740000000000006044820152606401610243565b60048101805460ff19166001908117909155600282015490820154610698919061083d565b33600090815260026020526040812080549091906106b7908490610850565b9091555050600181015460405190815233907fc200a1f31dd659e356e0f112c82558e25f49f7b0f84438691cd96f5cb35588239060200160405180910390a25050565b6003818154811061070a57600080fd5b6000918252602090912060059091020180546001820154600283015460038401546004909401546001600160a01b0390931694509092909160ff1685565b80356001600160a01b038116811461075f57600080fd5b919050565b60006020828403121561077657600080fd5b61077f82610748565b9392505050565b60006020828403121561079857600080fd5b5035919050565b6000806000606084860312156107b457600080fd5b6107bd84610748565b95602085013595506040909401359392505050565b634e487b7160e01b600052603260045260246000fd5b634e487b7160e01b600052601160045260246000fd5b8082028115828204841417610815576108156107e8565b92915050565b60008261083857634e487b7160e01b600052601260045260246000fd5b500490565b80820180821115610815576108156107e8565b81810381811115610815576108156107e856fea2646970667358221220f55d1853b176d87fb3bcd72cc58dd9f7eac78d9a0c5808afc0202a4907c81d3964736f6c63430008130033",
    "sourcePath": "c:/Users/PC/memoi/loans/contracts/Lending.sol",
    "compiler": {
        "name": "solc",
        "version": "0.8.19+commit.7dd6d404"
    },
    "functionHashes": {
        "balances(address)": "27e235e3",
        "getLoanCount()": "52196812",
        "getLoanDetails(uint256)": "66877b8d",
        "interestRate()": "7c3a00fd",
        "lend(address,uint256,uint256)": "7082d203",
        "loans(uint256)": "e1ec3c68",
        "owner()": "8da5cb5b",
        "repayLoan(uint256)": "ab7b1c89",
        "withdraw()": "3ccfd60b"
    },
    "gasEstimates": {
        "creation": {
            "codeDepositCost": "440200",
            "executionCost": "infinite",
            "totalCost": "infinite"
        },
        "external": {
            "balances(address)": "2509",
            "getLoanCount()": "2326",
            "getLoanDetails(uint256)": "13284",
            "interestRate()": "2306",
            "lend(address,uint256,uint256)": "infinite",
            "loans(uint256)": "13269",
            "owner()": "2381",
            "repayLoan(uint256)": "infinite",
            "withdraw()": "infinite"
        }
    }
}